:10000000FFC000001BC1000019C1000017C10000A3
:1000100015C1000013C1000011C100000FC1000094
:100020000DC100000BC1000060C7000099C70000AF
:1000300005C1000003C1000001C10000FFC00000B5
:10004000FDC00000FBC00000F9C00000F7C00000C8
:10005000F5C00000F3C00000F1C00000EFC00000D8
:10006000EDC00000EBC00000E9C00000E7C00000E8
:10007000E5C0000087C20000E1C00000DFC0000052
:10008000DDC00000DBC00000D9C00000D7C0000008
:10009000D5C00000D3C000005807550752074F07CE
:1000A0004C0749074607430740073D073A0737070C
:1000B000340731072E072B072807250722071F07BC
:1000C0001C0719071607130710070D070A0707076C
:1000D00004070107FE06FB06F806F506F206EF0622
:1000E000EC06E906E606E306E006DD06DA06D706D4
:1000F000D406D106CE06CB06C806C506C206BF0684
:10010000BC06B906B606B306B006AD06AA06A70633
:10011000A406A1069E069B069806000100004E015B
:10012000120002000060014300030000A30104016B
:10013000030904A7011A02030904C3012C030309DC
:1001400004F1010C0001C112018036018136120157
:10015000000202000010C0167A040001010203012F
:1001600009024300020100C032090400000102023A
:1001700001000524001001052401010104240206E8
:100180000524060001070582031000400904010050
:10019000020A000000070503024000000705840270
:1001A000400000040309041A034A0061006D006561
:1001B00000730020004D006F007200720069007330
:1001C0000000002C03470075006E00200043006F04
:1001D000006E00740072006F006C006C00650072AD
:1001E000002000530065007200690061006C00008F
:1001F000000C0330003000300030003100000000FF
:1002000011241FBECFEFD0E2DEBFCDBF11E0A0E0D2
:10021000B1E0E6E4F5E100E00BBF02C007900D920B
:10022000A031B107D9F711E0A0E1B1E001C01D9202
:10023000AE39B107E1F74ED40C94A10AE1CEA6E3A2
:10024000B1E086E6809336018093370181E08093A8
:100250003801E6E7F1E09091760180917701809393
:10026000390190933A0182E080933B0190917801AB
:10027000838180933C0190933D0183E080933E0114
:1002800090917A01858180933F019093400184E0B1
:100290008093410190917C018781809342019093EA
:1002A000430185E08093440190917E018185809394
:1002B00045019093460186E080934701909180012B
:1002C0008385809348019093490187E080934A0198
:1002D00090918201858580934B0190934C0188E039
:1002E00080934D0190918401878580934E01909376
:1002F0004F0189E08093500190918601818980931C
:100300005101909352018AE08093530190918801AA
:10031000838980935401909355018BE0809356011B
:1003200090918A01858980935701909358018CE0C0
:100330008093590190918C01878980935A01909301
:100340005B018DE080935C0190918E01818D8093A3
:100350005D0190935E018EE080935F01909190012A
:10036000838D80936001909361018FE0809362019F
:1003700090919201858D809363019093640180E157
:100380008093650190919401878D8093660190938D
:10039000670181E1809368019091960181A180932A
:1003A000690190936A0182E180936B0190919801B9
:1003B00083A180936C0190936D0183E180936E0122
:1003C00090919A0185A180936F019093700184E1CF
:1003D0008093710190919C0187A180937201DD96B9
:1003E0009C93DD9782E4DE968C93DE97DF968C9368
:1003F00008954F925F926F927F928F929F92AF92E9
:10040000BF92CF92DF92EF92FF920F931F93CF9301
:10041000DF93709003018090020122E2C22E21E05E
:10042000D22E9AE1E92E91E0F92E02E111E0CAE222
:10043000D1E0AA24BB2481E0482E512C6624639489
:100440009A2CF601608170E0882777FD8095982FBF
:1004500089D720E030E040E45FE30E943E0A54D7B1
:10046000262FF601608389B190E00A2C02C0959591
:1004700087950A94E2F780FD02C0215C2083F60193
:100480008081813F70F088818823C9F46882C2012D
:10049000092C02C0880F991F0A94E2F780957822F0
:1004A0000EC08F3060F48881813049F41882C20117
:1004B000092C02C0880F991F0A94E2F7782AF801E4
:1004C000608170E0882777FD8095982F4BD720E0DA
:1004D00030E040E45FE3D2D717D7262FF8016083DE
:1004E00086B190E0092C02C0959587950A94E2F7B1
:1004F00080FD02C0215C2083F8018081813F70F083
:10050000F70180818823C1F46082C20102C0880F94
:10051000991F9A94E2F7809588220EC08F3060F47C
:10052000F7018081813041F41082C20102C0880F3E
:10053000991F9A94E2F7882A0894A11CB11C089488
:10054000C11CD11C0894E11CF11C0F5F1F4F2196A8
:10055000F8E0AF16B10409F073CF709203018092F6
:100560000201DF91CF911F910F91FF90EF90DF90EB
:10057000CF90BF90AF909F908F907F906F905F9043
:100580004F9008951F920F920FB60F920BB60F92D5
:100590001124AF92BF92CF92DF92EF92FF920F930E
:1005A0001F932F933F934F935F936F937F938F93FB
:1005B0009F93AF93BF93EF93FF93A090100181E0BF
:1005C000A81661F500917800B090790060917C01E7
:1005D00070917D0180E090E0C3D62AE939E949E1D4
:1005E0005FE34CD76B017C017B2D60E010E0602B5A
:1005F000712B882777FD8095982FB4D62CEC3CEC96
:100600004CEC5EE33BD79B01AC01C701B60118D6A9
:100610007BD670937D0160937C0131C0A090100166
:1006200082E0A81609F03BC000917800B0907900F4
:1006300060917E0170917F0180E090E091D62AE97F
:1006400039E949E15FE31AD76B017C017B2D60E05A
:1006500010E0602B712B882777FD8095982F82D62C
:100660002CEC3CEC4CEC5EE309D79B01AC01C701E0
:10067000B601E6D549D670937F0160937E01A092C2
:100680007C00809110018F5F8093100185E08A9536
:10069000F1F780917A00806480937A00D9C1A090AC
:1006A000100183E0A81661F500917800B090790000
:1006B000609182017091830180E090E051D62AE937
:1006C00039E949E15FE3DAD66B017C017B2D60E01B
:1006D00010E0602B712B882777FD8095982F42D6EC
:1006E0002CEC3CEC4CEC5EE3C9D69B01AC01C701A1
:1006F000B601A6D509D67093830160938201BFCF5E
:10070000A090100184E0A81661F500917800B090E7
:100710007900609184017091850180E090E020D69D
:100720002AE939E949E15FE3A9D66B017C017B2D18
:1007300060E010E0602B712B882777FD8095982F63
:1007400011D62CEC3CEC4CEC5EE398D69B01AC0152
:10075000C701B60175D5D8D5709385016093840122
:100760008ECFA090100185E0A816A1F50091780029
:10077000B0907900609186017091870180E090E0EF
:10078000EFD52AE939E949E15FE378D66B017C01CD
:100790007B2D60E010E0602B712B882777FD809522
:1007A000982FE0D52CEC3CEC4CEC5EE367D69B013B
:1007B000AC01C701B60144D5A7D5709387016093FA
:1007C0008601A0927C00809110018F5F80931001C0
:1007D0008A2D5DCFA090100186E0A81661F50091EA
:1007E0007800B0907900609178017091790180E093
:1007F00090E0B6D52AE939E949E15FE33FD66B01DC
:100800007C017B2D60E010E0602B712B882777FD49
:100810008095982FA7D52CEC3CEC4CEC5EE32ED6C3
:100820009B01AC01C701B6010BD56ED57093790160
:100830006093780124CFA090100187E0A816A1F55D
:1008400000917800B0907900609176017091770105
:1008500080E090E085D52AE939E949E15FE30ED6E9
:100860006B017C017B2D60E010E0602B712B8827F1
:1008700077FD8095982F76D52CEC3CEC4CEC5EE324
:10088000FDD59B01AC01C701B601DAD43DD570930B
:10089000770160937601A0927C00809110018F5FB8
:1008A000809310018AE0F3CE80911001883009F026
:1008B000CFC080911101882369F500917800B09034
:1008C0007900609194017091950180E090E048D5A5
:1008D0002AE939E949E15FE3D1D56B017C017B2D40
:1008E00060E010E0602B712B882777FD8095982FB2
:1008F00039D52CEC3CEC4CEC5EE3C0D59B01AC0153
:10090000C701B6019DD400D5709395016093940101
:1009100081E030C080911101813099F5009178001B
:10092000B0907900609192017091930180E090E025
:1009300017D52AE939E949E15FE3A0D56B017C01CC
:100940007B2D60E010E0602B712B882777FD809570
:10095000982F08D52CEC3CEC4CEC5EE38FD59B013A
:10096000AC01C701B6016CD4CFD4709393016093EE
:10097000920182E28EB9809111018F5F8093110103
:1009800063C080911101823069F500917800B090C8
:10099000790060918E0170918F0180E090E0E0D449
:1009A0002AE939E949E15FE369D56B017C017B2DD7
:1009B00060E010E0602B712B882777FD8095982FE1
:1009C000D1D42CEC3CEC4CEC5EE358D59B01AC0153
:1009D000C701B60135D498D470938F0160938E010E
:1009E00083E2C8CF80911101833071F500917800C6
:1009F000B0907900609190017091910180E090E059
:100A0000AFD42AE939E949E15FE338D56B017C01CC
:100A10007B2D60E010E0602B712B882777FD80959F
:100A2000982FA0D42CEC3CEC4CEC5EE327D59B013A
:100A3000AC01C701B60104D467D4709391016093EF
:100A400090011EB81092110110927C0010921001BA
:100A5000FF91EF91BF91AF919F918F917F916F9196
:100A60005F914F913F912F911F910F91FF90EF90C8
:100A7000DF90CF90BF90AF900F900BBE0F900FBE46
:100A80000F901F90189580E880936100109261008C
:100A90001AB89FEF9BB917B898B914B895B911B89F
:100AA00092B983E28DB980E28EB910927C008FE812
:100AB00080937A0090937E007ED096D08823E9F3CD
:100AC00080E197E220E931E0F9013197F1F70197F0
:100AD000D9F70895BF92CF92DF92EF92FF920F93D2
:100AE0001F93CF93DF93CFDF789480917A00806457
:100AF00080937A0081E080931001F4D180FFFDCFD4
:100B0000B6D0BB24B39475DC80911001882309F022
:100B100045C092D0882309F441C069D0059799F760
:100B20004091020140684093020120910301206C32
:100B300020930301D0900001CC248091010190E02A
:100B40008C299D299093970180939601F42EEE2491
:100B500030E02E293F29309399012093980110917C
:100B6000040100E08091050190E0802B912B90938F
:100B70009B0180939A01D0910601C0E0809107010A
:100B800090E08C2B9D2B90939D0180939C0157DBD3
:100B900086E391E060E470E07DD005C080911001B3
:100BA000882309F0B0CF80917A00806480937A0026
:100BB000B0921001A8CF81E88093D70080EA80939B
:100BC000D80086E189BD09B400FEFDCF80E980939D
:100BD000D8001092E00010923201109233018CE0A4
:100BE0008093E200789408958091320108952FB7A0
:100BF000F89480913201882369F083E08093E900C2
:100C00009BE68091E80085FD09C082FF03C09093B8
:100C1000E800F7CF2FBF2FEF3FEF0CC09091F1000E
:100C20008091E80085FD03C08BE68093E8002FBF2C
:100C3000292F30E0C90108952FB7F894809132012F
:100C4000882311F490E010C083E08093E900909134
:100C5000F200992349F48091E80082FF05C085FDE8
:100C600003C08BE68093E8002FBF892F0895809101
:100C70003201882371F09FB7F89483E08093E900F4
:100C80002BE602C02093E8008091E80085FDFACFB2
:100C90009FBF0895CF93DF93EC01809132018823A9
:100CA00009F41CC13FB7F89484E08093E900809177
:100CB0003501882309F408C18091E80085FD02C050
:100CC0003FBF0CC110923501FFC09091E400975EC8
:100CD0008091E80085FD13C03FBF8091E400891733
:100CE00021F481E080933501F9C08091320188239D
:100CF00009F4F4C03FB7F894B093E900E9CF8091CC
:100D0000F200242F281B822F90E06817790708F43F
:100D1000262F822F90E08134910508F0C6C0845BB5
:100D20009F4FFC01EE0FFF1F0590F491E02D0994F9
:100D300089918093F10089918093F100899180934A
:100D4000F10089918093F10089918093F10089915C
:100D50008093F10089918093F10089918093F10053
:100D600089918093F10089918093F100899180931A
:100D7000F10089918093F10089918093F10089912C
:100D80008093F10089918093F10089918093F10023
:100D900089918093F10089918093F10089918093EA
:100DA000F10089918093F10089918093F1008991FC
:100DB0008093F10089918093F10089918093F100F3
:100DC00089918093F10089918093F10089918093BA
:100DD000F10089918093F10089918093F1008991CC
:100DE0008093F10089918093F10089918093F100C3
:100DF00089918093F10089918093F100899180938A
:100E0000F10089918093F10089918093F10089919B
:100E10008093F10089918093F10089918093F10092
:100E200089918093F10089918093F1008991809359
:100E3000F10089918093F10089918093F10089916B
:100E40008093F10089918093F10089918093F10062
:100E500089918093F10089918093F1008991809329
:100E6000F10089918093F10089918093F10089913B
:100E70008093F10089918093F10089918093F10032
:100E800089918093F10089918093F10089918093F9
:100E9000F10089918093F10089918093F10089910B
:100EA0008093F10089918093F10089918093F10002
:100EB0008091E80085FD02C05093E800621B710933
:100EC000A09334013FBF04C0B4E040E45AE3A5E07E
:100ED0006115710509F0F9CE80E001C08FEFDF9157
:100EE000CF9108958091330108951F920F920FB60C
:100EF0000F9211248F939F938091E1001092E10053
:100F0000982F83FF11C01092E90081E08093EB00DD
:100F10001092EC0082E18093ED0088E08093F00075
:100F2000109232011092330192FF13C0809132016E
:100F3000882379F080913401882359F0815080937F
:100F40003401882331F484E08093E9008AE38093BC
:100F5000E8009F918F910F900FBE0F901F901895F2
:100F60001F920F920FB60F920BB60F9211240F9390
:100F70001F932F933F934F935F936F937F938F9321
:100F80009F93AF93BF93EF93FF931092E9008091EB
:100F9000E80083FF3CC14091F1003091F100809165
:100FA000F100682F70E02091F100922F80E0682B13
:100FB000792B8091F100A82FB0E02091F100922FC1
:100FC00080E0A82BB92B1091F1000091F10082EF85
:100FD0008093E800363009F05AC021E231E0A901DF
:100FE00045505040F901379785919491861797079E
:100FF00001F5FA01859194918A179B07D1F49A0122
:101000002E5F3F4FF901659174912E5F3F4FF901BB
:101010004491212F30E0902F80E0282B392B2F3F57
:10102000310519F010F02FEF30E0241758F4422F5B
:1010300009C0295F3F4F495F5F4FF1E02B343F0705
:1010400089F6E5C05EEF8091E800282F30E0C90105
:1010500085709070892BB9F322FDDCC0342F4131AB
:1010600008F030E1232FCB0106C0FC010196E4918A
:10107000E093F10021502223C1F7630F711D431B40
:101080005093E8004423F9F63031E9F2C3C035301B
:1010900061F48EEF8093E8008091E80080FFFCCF40
:1010A000862F80688093E300B5C0393051F5442322
:1010B00009F0ADC0609332011092330110923401F7
:1010C0008EEF8093E80084E491E021E02093E90032
:1010D000FC010196E491E093EB00EE2369F0AC0192
:1010E0004F5F5F4FFC0184918093EC00CA01019631
:1010F000FA0134913093ED002F5F253039F78EE1FE
:1011000081C0383061F4403809F081C08091E80036
:1011100080FFFCCF809132018093F10050C03132CA
:1011200089F4413A09F073C08091E80080FFFCCF58
:10113000E8E0F1E081918093F10081E0EF30F80781
:10114000C9F73DC03032A1F4413209F060C080914E
:10115000E80082FFFCCFE8E0F1E08091F1008193AC
:1011600081E0EF30F807C9F78BEF8093E80027C0E4
:10117000323251F4413209F04AC060933301809118
:10118000E80080FFFCCF1BC03323E9F48091E80026
:1011900080FFFCCF423811F080E00DC0A093E90041
:1011A0008091EB0090E025E0969587952A95E1F7F0
:1011B00081701092E9008093F1001092F1008EEF9F
:1011C0008093E80027C0313011F0333001F5423010
:1011D000F1F4672BE1F42A2F2F77822F815084308E
:1011E000B0F48EEF8093E8002093E900333079F07B
:1011F00089E18093EB0081E090E002C0880F991FA5
:101200002A95E2F78093EA001092EA0003C081E297
:101210008093EB00FF91EF91BF91AF919F918F91E0
:101220007F916F915F914F913F912F911F910F91FE
:101230000F900BBE0F900FBE0F901F901895505837
:10124000BB27AA270ED0E0C0D1D030F0D6D020F0F6
:1012500031F49F3F11F41EF4C6C00EF4E095E7FB95
:10126000BCC0E92FE2D080F3BA1762077307840786
:10127000950718F071F49EF5FAC00EF4E0950B2E68
:10128000BA2FA02D0B01B90190010C01CA01A001D8
:101290001124FF27591B99F0593F50F4503E68F133
:1012A0001A16F040A22F232F342F4427585FF3CF74
:1012B000469537952795A795F0405395C9F77EF445
:1012C0001F16BA0B620B730B840BBAF09150A1F08E
:1012D000FF0FBB1F661F771F881FC2F70EC0BA0F14
:1012E000621F731F841F48F4879577956795B7959C
:1012F000F7959E3F08F0B3CF9395880F08F0992794
:10130000EE0F97958795089598D088F09F5790F0A5
:10131000B92F9927B751A0F0D1F0660F771F881F1A
:10132000991F1AF0BA95C9F712C0B13081F09FD059
:10133000B1E008959CC0672F782F8827B85F39F0F7
:10134000B93FCCF3869577956795B395D9F73EF479
:1013500090958095709561957F4F8F4F9F4F089521
:10136000E89409C097FB3EF490958095709561953F
:101370007F4F8F4F9F4F9923A9F0F92F96E9BB27F5
:101380009395F695879577956795B795F111F8CF71
:10139000FAF4BB0F11F460FF1BC06F5F7F4F8F4FDC
:1013A0009F4F16C0882311F096E911C0772321F0D2
:1013B0009EE8872F762F05C0662371F096E8862F6A
:1013C00070E060E02AF09A95660F771F881FDAF7C1
:1013D000880F9695879597F9089597F99F6780E804
:1013E00070E060E008959FEF80EC089500240A9477
:1013F0001616170618060906089500240A941216F0
:101400001306140605060895092E0394000C11F422
:10141000882352F0BB0F40F4BF2B11F460FF04C0CF
:101420006F5F7F4F8F4F9F4F089557FD9058440F28
:10143000551F59F05F3F71F04795880F97FB991F33
:1014400061F09F3F79F087950895121613061406F0
:10145000551FF2CF4695F1DF08C01616170618067D
:10146000991FF1CF86957105610508940895E89458
:10147000BB2766277727CB0197F908950BD0C4CFF8
:10148000B5DF28F0BADF18F0952309F0A6CFABCF6F
:101490001124EECFCADFA0F3959FD1F3950F50E052
:1014A000551F629FF001729FBB27F00DB11D639F16
:1014B000AA27F00DB11DAA1F649F6627B00DA11DBC
:1014C000661F829F2227B00DA11D621F739FB00D62
:1014D000A11D621F839FA00D611D221F749F3327D2
:1014E000A00D611D231F849F600D211D822F762F6B
:1014F0006A2F11249F5750408AF0E1F088234AF068
:10150000EE0FFF1FBB1F661F771F881F91505040B3
:10151000A9F79E3F510570F060CFAACF5F3FECF373
:10152000983EDCF3869577956795B795F795E7959F
:101530009F5FC1F7FE2B880F911D9695879597F9B0
:061540000895F894FFCFAE
:10154600FFFFFFFFFFFFFFFF00E1000000000800B4
:00000001FF
